{
  "_format": "hh-sol-artifact-1",
  "contractName": "RoleBasedGovernance",
  "sourceName": "contracts/RoleBasedGovernance.sol",
  "abi": [
    {
      "inputs": [
        {
          "internalType": "uint256[]",
          "name": "roles",
          "type": "uint256[]"
        },
        {
          "internalType": "uint256[]",
          "name": "weights",
          "type": "uint256[]"
        },
        {
          "internalType": "address",
          "name": "daoExpanderAddress",
          "type": "address"
        }
      ],
      "stateMutability": "nonpayable",
      "type": "constructor"
    },
    {
      "anonymous": false,
      "inputs": [
        {
          "indexed": false,
          "internalType": "uint256",
          "name": "proposalId",
          "type": "uint256"
        },
        {
          "indexed": false,
          "internalType": "string",
          "name": "metadataCID",
          "type": "string"
        },
        {
          "indexed": false,
          "internalType": "uint256",
          "name": "startTime",
          "type": "uint256"
        },
        {
          "indexed": false,
          "internalType": "uint256",
          "name": "endTime",
          "type": "uint256"
        }
      ],
      "name": "ProposalCreated",
      "type": "event"
    },
    {
      "anonymous": false,
      "inputs": [
        {
          "indexed": false,
          "internalType": "uint256",
          "name": "proposalId",
          "type": "uint256"
        },
        {
          "indexed": false,
          "internalType": "address",
          "name": "voter",
          "type": "address"
        },
        {
          "indexed": false,
          "internalType": "bool",
          "name": "vote",
          "type": "bool"
        }
      ],
      "name": "VoteCast",
      "type": "event"
    },
    {
      "inputs": [
        {
          "internalType": "string",
          "name": "metadataCID",
          "type": "string"
        },
        {
          "internalType": "uint256",
          "name": "startTime",
          "type": "uint256"
        },
        {
          "internalType": "uint256",
          "name": "endTime",
          "type": "uint256"
        }
      ],
      "name": "createProposal",
      "outputs": [],
      "stateMutability": "nonpayable",
      "type": "function"
    },
    {
      "inputs": [],
      "name": "getActiveProposalIDs",
      "outputs": [
        {
          "internalType": "uint256[]",
          "name": "activeProposalIds",
          "type": "uint256[]"
        }
      ],
      "stateMutability": "view",
      "type": "function"
    },
    {
      "inputs": [
        {
          "internalType": "uint256",
          "name": "proposalId",
          "type": "uint256"
        }
      ],
      "name": "getProposal",
      "outputs": [
        {
          "internalType": "string",
          "name": "metadataCID",
          "type": "string"
        },
        {
          "internalType": "uint256",
          "name": "startTime",
          "type": "uint256"
        },
        {
          "internalType": "uint256",
          "name": "endTime",
          "type": "uint256"
        },
        {
          "internalType": "uint256",
          "name": "yesVotes",
          "type": "uint256"
        },
        {
          "internalType": "uint256",
          "name": "noVotes",
          "type": "uint256"
        }
      ],
      "stateMutability": "view",
      "type": "function"
    },
    {
      "inputs": [
        {
          "internalType": "address",
          "name": "",
          "type": "address"
        }
      ],
      "name": "memberRoles",
      "outputs": [
        {
          "internalType": "uint256",
          "name": "",
          "type": "uint256"
        }
      ],
      "stateMutability": "view",
      "type": "function"
    },
    {
      "inputs": [],
      "name": "proposalCount",
      "outputs": [
        {
          "internalType": "uint256",
          "name": "",
          "type": "uint256"
        }
      ],
      "stateMutability": "view",
      "type": "function"
    },
    {
      "inputs": [
        {
          "internalType": "uint256",
          "name": "",
          "type": "uint256"
        },
        {
          "internalType": "uint256",
          "name": "",
          "type": "uint256"
        }
      ],
      "name": "proposalRoleWeights",
      "outputs": [
        {
          "internalType": "uint256",
          "name": "",
          "type": "uint256"
        }
      ],
      "stateMutability": "view",
      "type": "function"
    },
    {
      "inputs": [
        {
          "internalType": "uint256",
          "name": "",
          "type": "uint256"
        },
        {
          "internalType": "address",
          "name": "",
          "type": "address"
        }
      ],
      "name": "proposalVotes",
      "outputs": [
        {
          "internalType": "bool",
          "name": "",
          "type": "bool"
        }
      ],
      "stateMutability": "view",
      "type": "function"
    },
    {
      "inputs": [
        {
          "internalType": "uint256",
          "name": "",
          "type": "uint256"
        }
      ],
      "name": "proposals",
      "outputs": [
        {
          "internalType": "string",
          "name": "metadataCID",
          "type": "string"
        },
        {
          "internalType": "uint256",
          "name": "startTime",
          "type": "uint256"
        },
        {
          "internalType": "uint256",
          "name": "endTime",
          "type": "uint256"
        },
        {
          "internalType": "uint256",
          "name": "yesVotes",
          "type": "uint256"
        },
        {
          "internalType": "uint256",
          "name": "noVotes",
          "type": "uint256"
        }
      ],
      "stateMutability": "view",
      "type": "function"
    },
    {
      "inputs": [
        {
          "internalType": "address",
          "name": "member",
          "type": "address"
        },
        {
          "internalType": "uint256",
          "name": "role",
          "type": "uint256"
        }
      ],
      "name": "setMemberRole",
      "outputs": [],
      "stateMutability": "nonpayable",
      "type": "function"
    },
    {
      "inputs": [
        {
          "internalType": "uint256",
          "name": "proposalId",
          "type": "uint256"
        },
        {
          "internalType": "bool",
          "name": "voteValue",
          "type": "bool"
        }
      ],
      "name": "vote",
      "outputs": [],
      "stateMutability": "nonpayable",
      "type": "function"
    }
  ],
  "bytecode": "0x60806040523480156200001157600080fd5b5060405162002213380380620022138339818101604052810190620000379190620002c2565b81518351146200007e576040517f08c379a00000000000000000000000000000000000000000000000000000000081526004016200007590620003b2565b60405180910390fd5b60005b83518110156200014c57828181518110620000c5577f4e487b7100000000000000000000000000000000000000000000000000000000600052603260045260246000fd5b60200260200101516003600080815260200190815260200160002060008684815181106200011c577f4e487b7100000000000000000000000000000000000000000000000000000000600052603260045260246000fd5b60200260200101518152602001908152602001600020819055508080620001439062000486565b91505062000081565b50600073b6868b3920712729a24689cb5c770639d0c56add905080600560006101000a81548173ffffffffffffffffffffffffffffffffffffffff021916908373ffffffffffffffffffffffffffffffffffffffff16021790555081600660006101000a81548173ffffffffffffffffffffffffffffffffffffffff021916908373ffffffffffffffffffffffffffffffffffffffff1602179055505050505062000566565b600062000209620002038462000408565b620003d4565b905080838252602082019050828560208602820111156200022957600080fd5b60005b858110156200025d5781620002428882620002ab565b8452602084019350602083019250506001810190506200022c565b5050509392505050565b600081519050620002788162000532565b92915050565b600082601f8301126200029057600080fd5b8151620002a2848260208601620001f2565b91505092915050565b600081519050620002bc816200054c565b92915050565b600080600060608486031215620002d857600080fd5b600084015167ffffffffffffffff811115620002f357600080fd5b62000301868287016200027e565b935050602084015167ffffffffffffffff8111156200031f57600080fd5b6200032d868287016200027e565b9250506040620003408682870162000267565b9150509250925092565b60006200035960228362000437565b91507f526f6c654261736564476f7665726e616e63653a20496e76616c696420696e7060008301527f75740000000000000000000000000000000000000000000000000000000000006020830152604082019050919050565b60006020820190508181036000830152620003cd816200034a565b9050919050565b6000604051905081810181811067ffffffffffffffff82111715620003fe57620003fd62000503565b5b8060405250919050565b600067ffffffffffffffff82111562000426576200042562000503565b5b602082029050602081019050919050565b600082825260208201905092915050565b600062000455826200045c565b9050919050565b600073ffffffffffffffffffffffffffffffffffffffff82169050919050565b6000819050919050565b600062000493826200047c565b91507fffffffffffffffffffffffffffffffffffffffffffffffffffffffffffffffff821415620004c957620004c8620004d4565b5b600182019050919050565b7f4e487b7100000000000000000000000000000000000000000000000000000000600052601160045260246000fd5b7f4e487b7100000000000000000000000000000000000000000000000000000000600052604160045260246000fd5b6200053d8162000448565b81146200054957600080fd5b50565b62000557816200047c565b81146200056357600080fd5b50565b611c9d80620005766000396000f3fe608060405234801561001057600080fd5b506004361061009e5760003560e01c8063c3d31c9a11610066578063c3d31c9a14610183578063c7f758a81461019f578063c9d27afe146101d3578063d31ca9a0146101ef578063da35c6641461020d5761009e565b8063013cf08b146100a35780630cdca9e6146100d757806322e2e12d146101075780636baa5e6a146101235780638e1f6a2c14610153575b600080fd5b6100bd60048036038101906100b89190611345565b61022b565b6040516100ce9594939291906117db565b60405180910390f35b6100f160048036038101906100ec9190611250565b6102e9565b6040516100fe91906118d5565b60405180910390f35b610121600480360381019061011c91906112b5565b610301565b005b61013d6004803603810190610138919061140f565b610646565b60405161014a91906118d5565b60405180910390f35b61016d60048036038101906101689190611397565b61066b565b60405161017a91906117c0565b60405180910390f35b61019d60048036038101906101989190611279565b61069a565b005b6101b960048036038101906101b49190611345565b6108f5565b6040516101ca9594939291906117db565b60405180910390f35b6101ed60048036038101906101e891906113d3565b6109cb565b005b6101f7610e0d565b604051610204919061179e565b60405180910390f35b61021561104d565b60405161022291906118d5565b60405180910390f35b600060205280600052604060002060009150905080600001805461024e90611b09565b80601f016020809104026020016040519081016040528092919081815260200182805461027a90611b09565b80156102c75780601f1061029c576101008083540402835291602001916102c7565b820191906000526020600020905b8154815290600101906020018083116102aa57829003601f168201915b5050505050908060010154908060020154908060030154908060040154905085565b60046020528060005260406000206000915090505481565b60016000600560009054906101000a900473ffffffffffffffffffffffffffffffffffffffff1673ffffffffffffffffffffffffffffffffffffffff166379389510336040518263ffffffff1660e01b8152600401610360919061175a565b60206040518083038186803b15801561037857600080fd5b505afa15801561038c573d6000803e3d6000fd5b505050506040513d601f19601f820116820180604052508101906103b0919061136e565b90506000600560009054906101000a900473ffffffffffffffffffffffffffffffffffffffff1673ffffffffffffffffffffffffffffffffffffffff166396259c6633600660009054906101000a900473ffffffffffffffffffffffffffffffffffffffff166040518363ffffffff1660e01b8152600401610433929190611775565b60806040518083038186803b15801561044b57600080fd5b505afa15801561045f573d6000803e3d6000fd5b505050506040513d601f19601f82011682018060405250810190610483919061131c565b9050600082141580156104b657507fffffffffffffffffffffffffffffffffffffffffffffffffffffffffffffffff8214155b80156104c3575080606001515b80156104d25750828160200151145b610511576040517f08c379a000000000000000000000000000000000000000000000000000000000815260040161050890611875565b60405180910390fd5b838510610553576040517f08c379a000000000000000000000000000000000000000000000000000000000815260040161054a906118b5565b60405180910390fd5b6000600180546105639190611a29565b90506040518060a0016040528088815260200187815260200186815260200160008152602001600081525060008083815260200190815260200160002060008201518160000190805190602001906105bc929190611053565b5060208201518160010155604082015181600201556060820151816003015560808201518160040155905050600160008154809291906105fb90611b3b565b91905055507f5d072faeaf3fe9518eca824577834e1efc3ff209025796dd8819b72706cd0bd5818888886040516106359493929190611927565b60405180910390a150505050505050565b6003602052816000526040600020602052806000526040600020600091509150505481565b60026020528160005260406000206020528060005260406000206000915091509054906101000a900460ff1681565b60016000600560009054906101000a900473ffffffffffffffffffffffffffffffffffffffff1673ffffffffffffffffffffffffffffffffffffffff166379389510336040518263ffffffff1660e01b81526004016106f9919061175a565b60206040518083038186803b15801561071157600080fd5b505afa158015610725573d6000803e3d6000fd5b505050506040513d601f19601f82011682018060405250810190610749919061136e565b90506000600560009054906101000a900473ffffffffffffffffffffffffffffffffffffffff1673ffffffffffffffffffffffffffffffffffffffff166396259c6633600660009054906101000a900473ffffffffffffffffffffffffffffffffffffffff166040518363ffffffff1660e01b81526004016107cc929190611775565b60806040518083038186803b1580156107e457600080fd5b505afa1580156107f8573d6000803e3d6000fd5b505050506040513d601f19601f8201168201806040525081019061081c919061131c565b90506000821415801561084f57507fffffffffffffffffffffffffffffffffffffffffffffffffffffffffffffffff8214155b801561085c575080606001515b801561086b5750828160200151145b6108aa576040517f08c379a00000000000000000000000000000000000000000000000000000000081526004016108a190611875565b60405180910390fd5b83600460008773ffffffffffffffffffffffffffffffffffffffff1673ffffffffffffffffffffffffffffffffffffffff168152602001908152602001600020819055505050505050565b60606000806000806000806000888152602001908152602001600020905080600001816001015482600201548360030154846004015484805461093790611b09565b80601f016020809104026020016040519081016040528092919081815260200182805461096390611b09565b80156109b05780601f10610985576101008083540402835291602001916109b0565b820191906000526020600020905b81548152906001019060200180831161099357829003601f168201915b50505050509450955095509550955095505091939590929450565b60026000600560009054906101000a900473ffffffffffffffffffffffffffffffffffffffff1673ffffffffffffffffffffffffffffffffffffffff166379389510336040518263ffffffff1660e01b8152600401610a2a919061175a565b60206040518083038186803b158015610a4257600080fd5b505afa158015610a56573d6000803e3d6000fd5b505050506040513d601f19601f82011682018060405250810190610a7a919061136e565b90506000600560009054906101000a900473ffffffffffffffffffffffffffffffffffffffff1673ffffffffffffffffffffffffffffffffffffffff166396259c6633600660009054906101000a900473ffffffffffffffffffffffffffffffffffffffff166040518363ffffffff1660e01b8152600401610afd929190611775565b60806040518083038186803b158015610b1557600080fd5b505afa158015610b29573d6000803e3d6000fd5b505050506040513d601f19601f82011682018060405250810190610b4d919061131c565b905060008214158015610b8057507fffffffffffffffffffffffffffffffffffffffffffffffffffffffffffffffff8214155b8015610b8d575080606001515b8015610b9c5750828160200151145b610bdb576040517f08c379a0000000000000000000000000000000000000000000000000000000008152600401610bd290611875565b60405180910390fd5b600080600087815260200190815260200160002090508060010154421015610c38576040517f08c379a0000000000000000000000000000000000000000000000000000000008152600401610c2f90611895565b60405180910390fd5b8060020154421115610c7f576040517f08c379a0000000000000000000000000000000000000000000000000000000008152600401610c7690611835565b60405180910390fd5b6002600087815260200190815260200160002060003373ffffffffffffffffffffffffffffffffffffffff1673ffffffffffffffffffffffffffffffffffffffff16815260200190815260200160002060009054906101000a900460ff1615610d1d576040517f08c379a0000000000000000000000000000000000000000000000000000000008152600401610d1490611855565b60405180910390fd5b60016002600088815260200190815260200160002060003373ffffffffffffffffffffffffffffffffffffffff1673ffffffffffffffffffffffffffffffffffffffff16815260200190815260200160002060006101000a81548160ff0219169083151502179055508415610dad576001816003016000828254610da19190611a29565b92505081905550610dca565b6001816004016000828254610dc29190611a29565b925050819055505b7fe71fcdac32df1877c1700e7bda2a03157e20993363a28fc35ac495cefc76e4d4863387604051610dfd939291906118f0565b60405180910390a1505050505050565b6060600060015467ffffffffffffffff811115610e53577f4e487b7100000000000000000000000000000000000000000000000000000000600052604160045260246000fd5b604051908082528060200260200182016040528015610e815781602001602082028036833780820191505090505b509050600080600190505b6001548111610f31576000806000838152602001908152602001600020905080600101544210158015610ec3575080600201544211155b15610f1d5781848481518110610f02577f4e487b7100000000000000000000000000000000000000000000000000000000600052603260045260246000fd5b6020026020010181815250508280610f1990611b3b565b9350505b508080610f2990611b3b565b915050610e8c565b508067ffffffffffffffff811115610f72577f4e487b7100000000000000000000000000000000000000000000000000000000600052604160045260246000fd5b604051908082528060200260200182016040528015610fa05781602001602082028036833780820191505090505b50925060005b8181101561104757828181518110610fe7577f4e487b7100000000000000000000000000000000000000000000000000000000600052603260045260246000fd5b6020026020010151848281518110611028577f4e487b7100000000000000000000000000000000000000000000000000000000600052603260045260246000fd5b602002602001018181525050808061103f90611b3b565b915050610fa6565b50505090565b60015481565b82805461105f90611b09565b90600052602060002090601f01602090048101928261108157600085556110c8565b82601f1061109a57805160ff19168380011785556110c8565b828001600101855582156110c8579182015b828111156110c75782518255916020019190600101906110ac565b5b5090506110d591906110d9565b5090565b5b808211156110f25760008160009055506001016110da565b5090565b6000611109611104846119a4565b611973565b90508281526020810184848401111561112157600080fd5b61112c848285611ac7565b509392505050565b60008135905061114381611c22565b92915050565b60008151905061115881611c22565b92915050565b60008135905061116d81611c39565b92915050565b60008151905061118281611c39565b92915050565b600082601f83011261119957600080fd5b81356111a98482602086016110f6565b91505092915050565b6000608082840312156111c457600080fd5b6111ce6080611973565b905060006111de84828501611149565b60008301525060206111f28482850161123b565b60208301525060406112068482850161123b565b604083015250606061121a84828501611173565b60608301525092915050565b60008135905061123581611c50565b92915050565b60008151905061124a81611c50565b92915050565b60006020828403121561126257600080fd5b600061127084828501611134565b91505092915050565b6000806040838503121561128c57600080fd5b600061129a85828601611134565b92505060206112ab85828601611226565b9150509250929050565b6000806000606084860312156112ca57600080fd5b600084013567ffffffffffffffff8111156112e457600080fd5b6112f086828701611188565b935050602061130186828701611226565b925050604061131286828701611226565b9150509250925092565b60006080828403121561132e57600080fd5b600061133c848285016111b2565b91505092915050565b60006020828403121561135757600080fd5b600061136584828501611226565b91505092915050565b60006020828403121561138057600080fd5b600061138e8482850161123b565b91505092915050565b600080604083850312156113aa57600080fd5b60006113b885828601611226565b92505060206113c985828601611134565b9150509250929050565b600080604083850312156113e657600080fd5b60006113f485828601611226565b92505060206114058582860161115e565b9150509250929050565b6000806040838503121561142257600080fd5b600061143085828601611226565b925050602061144185828601611226565b9150509250929050565b6000611457838361173c565b60208301905092915050565b61146c81611a7f565b82525050565b600061147d826119e4565b6114878185611a07565b9350611492836119d4565b8060005b838110156114c35781516114aa888261144b565b97506114b5836119fa565b925050600181019050611496565b5085935050505092915050565b6114d981611a91565b82525050565b60006114ea826119ef565b6114f48185611a18565b9350611504818560208601611ad6565b61150d81611c11565b840191505092915050565b6000611525602583611a18565b91507f526f6c654261736564476f7665726e616e63653a20566f74696e67206861732060008301527f656e6465640000000000000000000000000000000000000000000000000000006020830152604082019050919050565b600061158b602d83611a18565b91507f526f6c654261736564476f7665726e616e63653a204d656d626572206861732060008301527f616c726561647920766f746564000000000000000000000000000000000000006020830152604082019050919050565b60006115f1605083611a18565b91507f526f6c654261736564476f7665726e616e63653a2043616c6c657220646f657360008301527f206e6f7420686176652074686520726571756972656420726f6c6520696e207460208301527f6865207370656369666965642044414f000000000000000000000000000000006040830152606082019050919050565b600061167d602f83611a18565b91507f526f6c654261736564476f7665726e616e63653a20566f74696e67206861732060008301527f6e6f7420737461727465642079657400000000000000000000000000000000006020830152604082019050919050565b60006116e3602e83611a18565b91507f526f6c654261736564476f7665726e616e63653a20496e76616c69642070726f60008301527f706f73616c206475726174696f6e0000000000000000000000000000000000006020830152604082019050919050565b61174581611abd565b82525050565b61175481611abd565b82525050565b600060208201905061176f6000830184611463565b92915050565b600060408201905061178a6000830185611463565b6117976020830184611463565b9392505050565b600060208201905081810360008301526117b88184611472565b905092915050565b60006020820190506117d560008301846114d0565b92915050565b600060a08201905081810360008301526117f581886114df565b9050611804602083018761174b565b611811604083018661174b565b61181e606083018561174b565b61182b608083018461174b565b9695505050505050565b6000602082019050818103600083015261184e81611518565b9050919050565b6000602082019050818103600083015261186e8161157e565b9050919050565b6000602082019050818103600083015261188e816115e4565b9050919050565b600060208201905081810360008301526118ae81611670565b9050919050565b600060208201905081810360008301526118ce816116d6565b9050919050565b60006020820190506118ea600083018461174b565b92915050565b6000606082019050611905600083018661174b565b6119126020830185611463565b61191f60408301846114d0565b949350505050565b600060808201905061193c600083018761174b565b818103602083015261194e81866114df565b905061195d604083018561174b565b61196a606083018461174b565b95945050505050565b6000604051905081810181811067ffffffffffffffff8211171561199a57611999611be2565b5b8060405250919050565b600067ffffffffffffffff8211156119bf576119be611be2565b5b601f19601f8301169050602081019050919050565b6000819050602082019050919050565b600081519050919050565b600081519050919050565b6000602082019050919050565b600082825260208201905092915050565b600082825260208201905092915050565b6000611a3482611abd565b9150611a3f83611abd565b9250827fffffffffffffffffffffffffffffffffffffffffffffffffffffffffffffffff03821115611a7457611a73611b84565b5b828201905092915050565b6000611a8a82611a9d565b9050919050565b60008115159050919050565b600073ffffffffffffffffffffffffffffffffffffffff82169050919050565b6000819050919050565b82818337600083830152505050565b60005b83811015611af4578082015181840152602081019050611ad9565b83811115611b03576000848401525b50505050565b60006002820490506001821680611b2157607f821691505b60208210811415611b3557611b34611bb3565b5b50919050565b6000611b4682611abd565b91507fffffffffffffffffffffffffffffffffffffffffffffffffffffffffffffffff821415611b7957611b78611b84565b5b600182019050919050565b7f4e487b7100000000000000000000000000000000000000000000000000000000600052601160045260246000fd5b7f4e487b7100000000000000000000000000000000000000000000000000000000600052602260045260246000fd5b7f4e487b7100000000000000000000000000000000000000000000000000000000600052604160045260246000fd5b6000601f19601f8301169050919050565b611c2b81611a7f565b8114611c3657600080fd5b50565b611c4281611a91565b8114611c4d57600080fd5b50565b611c5981611abd565b8114611c6457600080fd5b5056fea2646970667358221220e9ebb53efcd716cbe1b65c9d6a2bf4f54a7a5d189f3160d6bffb510e404043a364736f6c63430008000033",
  "linkReferences": {},
  "deployedLinkReferences": {}
}